:1000000014C1000040C100003EC100003CC100001E
:100010003AC1000038C1000036C1000034C1000000
:1000200032C1000030C100002EC100002CC1000010
:100030002AC1000028C1000026C1000024C1000020
:1000400022C1000020C100001EC100001CC1000030
:100050001AC1000018C1000016C1000053C40000FE
:1000600012C1000019C40000EEC300000CC1000062
:100070000AC1000008C1000006C1000004C1000060
:1000800002C1000000C10000FEC00000FCC0000072
:10009000FAC00000F8C00000F6C00000F4C0000084
:1000A000F2C00000F0C00000EEC00000ECC0000094
:1000B000EAC00000E8C00000E6C00000E4C00000A4
:1000C000E2C00000E0C00000DEC00000DCC00000B4
:1000D000DAC00000D8C00000D6C00000D4C00000C4
:1000E000D2C00000D502D802C702CB02CF020F0354
:1000F000DC02E002E602EA02EE02F402F802FC028E
:100100000F03020306030A03000021002400270056
:100110002A002D0030003300010100000401070116
:100120000A0100002200250028002B002E003100CB
:10013000340002010000050108010B0100000A0B58
:1001400002090C0D0E080703040100000000000066
:10015000000000000000000000000000000000009F
:10016000000000000000000012111000000000005C
:10017000000000000000000000000000000000007F
:100180000000000020002300260029002C002F0082
:100190003200000100000301060109010505050503
:1001A000070508080808020202020A0A08080404EF
:1001B000040401010101010101010303030303031D
:1001C0000303040707070C0C0C0C0C0C0C0C0202AC
:1001D000020206060606060606060B0B0B0B0B0BA9
:1001E0000B0B010210202008081020401020408036
:1001F00002010201080402010102040810204080EB
:100200008040201008040201800402018040201078
:1002100008040201080402010102040810204080C1
:100220000102040810204080110511241FBECFEFE9
:10023000D1E2DEBFCDBF00E00CBF23E0A4E4B2E01A
:1002400001C01D92A933B207E1F712E0A0E0B2E0CD
:10025000EAE5F2E100E00BBF02C007900D92A43482
:10026000B107D9F711E0C5E1D1E000E005C0219761
:100270000109802FFE01E3D7C431D10780E00807D0
:10028000B1F70ED4E8C7BCCEE4E5F2E0A089B189AD
:1002900082E08C93A485B5851C92A685B7858FECEA
:1002A0008C93108EA489B58986E08C93A289B3893A
:1002B0008C9180618C93A289B3898C9188608C9396
:1002C000A289B3898C9180688C930288F389E02D90
:1002D00080818F7D80830895CF92DF92EF92FF928D
:1002E0000F931F93CF93DF936C017A018B01C0E0D2
:1002F000D0E0CE15DF0581F0D8016D918D01D601DA
:10030000ED91FC910190F081E02DC6011995892BAA
:1003100011F02196EECF7E01C701DF91CF911F91A1
:100320000F91FF90EF90DF90CF900895089580E0B7
:1003300090E00895FC01538D448D252F30E0842FEB
:1003400090E0821B930B541710F0CF9608950197FD
:100350000895FC01918D828D981761F0828DDF01E7
:10036000A80FB11D5D968C91928D9F5F9F73928FA8
:1003700090E008958FEF9FEF0895FC01918D828D9D
:10038000981731F0828DE80FF11D858D90E008956A
:100390008FEF9FEF0895FC01918D228D892F90E0C2
:1003A000805C9F4F821B91098F739927089584E584
:1003B00092E0F1DF21E0892B09F420E0822F0895FB
:1003C000FC01848DDF01A80FB11DA35ABF4F2C91F2
:1003D000848D90E001968F739927848FA689B789C1
:1003E0002C93A089B1898C91837080648C93938DB8
:1003F000848D981306C00288F389E02D80818F7D5B
:1004000080830895EF92FF920F931F93CF93DF9312
:10041000EC0181E0888F9B8D8C8D981305C0E88955
:10042000F989808185FD25C0F62E0B8D10E00F5FC8
:100430001F4F0F731127E02E8C8DE8120BC00FB6E3
:1004400007FCFACFE889F989808185FFF5CFCE01D5
:10045000B7DFF2CF8B8DFE01E80FF11DE35AFF4F9E
:10046000F0829FB7F8940B8FEA89FB8980818062C4
:100470000AC09FB7F894EE89FF896083E889F989FB
:1004800080818370806480839FBF81E090E0DF91F2
:10049000CF911F910F91FF90EF900895CF93DF932D
:1004A000EC01888D8823C1F0EA89FB89808185FD74
:1004B00005C0A889B9898C9186FD0EC00FB607FCCE
:1004C000F5CF808185FFF2CFA889B9898C9185FF0E
:1004D000EDCFCE0175DFE8CFDF91CF91089580E0B9
:1004E00090E0892B19F063DF811125C080E090E056
:1004F000892B41F080E090E0892B21F00E940000E0
:1005000081111CC080E090E0892B41F080E090E0F8
:10051000892B21F00E940000811113C080E090E03F
:10052000892BA1F080E090E0892B81F00E940000EF
:1005300081110AC008950E940000D8CF0E940000D7
:10054000E1CF0E940000EACF0C9400000895362FFE
:1005500090E0FC01E45CFE4F4491FC01EE51FE4F43
:100560002491FC01E456FE4F9491992309F46BC049
:10057000442309F454C050E0FA013197E231F10507
:1005800008F04DC08827EE58FF4F8F4F58C6809116
:1005900080008F7707C0809180008F7D03C080919D
:1005A0008000877F809380003AC084B58F7702C037
:1005B00084B58F7D84BD33C08091B0008F7703C038
:1005C0008091B0008F7D8093B00029C08091900011
:1005D0008F7707C0809190008F7D03C0809190003D
:1005E000877F809390001BC08091A0008F7707C009
:1005F0008091A0008F7D03C08091A000877F8093B1
:10060000A0000DC0809120018F7707C0809120014C
:100610008F7D03C080912001877F80932001E92F87
:10062000F0E0EE0FFF1FEE5DFE4FA591B4919FB776
:10063000F894311104C08C912095282302C0EC91CC
:100640002E2B2C939FBF0895CF93DF9390E0FC0156
:10065000EE51FE4F2491FC01E456FE4F8491882315
:1006600061F190E0880F991FFC01E85FFE4FC59192
:10067000D491FC01EE5DFE4FA591B491611109C0CA
:100680009FB7F8948881209582238883EC912E234C
:100690000BC0623061F49FB7F8948881322F309597
:1006A00083238883EC912E2B2C939FBF06C08FB79A
:1006B000F894E8812E2B28838FBFDF91CF91089586
:1006C0003FB7F89480914A0290914B02A0914C025E
:1006D000B0914D0226B5A89B05C02F3F19F0019699
:1006E000A11DB11D3FBFBA2FA92F982F8827820FB8
:1006F000911DA11DB11DBC01CD0142E0660F771F08
:10070000881F991F4A95D1F708958F929F92AF92B3
:10071000BF92CF92DF92EF92FF92D2DF4B015C014A
:1007200082E3C82ED12CE12CF12CCADFDC01CB01F5
:1007300088199909AA09BB09883E9340A105B1050A
:10074000A0F321E0C21AD108E108F10888EE880E72
:1007500083E0981EA11CB11CC114D104E104F10472
:1007600021F7FF90EF90DF90CF90BF90AF909F90D8
:100770008F9008952FB7F8946091460270914702C8
:1007800080914802909149022FBF089560D561156C
:10079000710579F0FB0101900020E9F73197AF0175
:1007A000461B570BDC01ED91FC910280F381E02D9B
:1007B000199480E090E008958F929F92AF92BF923B
:1007C000EF92FF920F931F93CF93DF93CDB7DEB7D6
:1007D000A1970FB6F894DEBF0FBECDBF7C01FA0122
:1007E000CB0119A2223008F42AE08E010F5D1F4FC1
:1007F000822E912CA12CB12CBF01A5019401CCD447
:10080000F901CA01015011096A3014F4605D01C098
:10081000695CD8016C93232B242B252B69F7B80135
:10082000C701B5DFA1960FB6F894DEBF0FBECDBFEE
:10083000DF91CF911F910F91FF90EF90BF90AF90FC
:100840009F908F9008951F920F920FB60F921124D0
:100850000BB60F922F933F934F935F936F937F93BA
:100860008F939F93AF93BF93EF93FF9384E592E0B1
:10087000A7DDFF91EF91BF91AF919F918F917F91F4
:100880006F915F914F913F912F910F900BBE0F9001
:100890000FBE0F901F9018951F920F920FB60F92D8
:1008A00011240BB60F922F938F939F93EF93FF9387
:1008B000E0916402F09165028081E0916A02F0911A
:1008C0006B0282FD12C0908180916D028F5F8F73E9
:1008D00020916E02821751F0E0916D02F0E0EC5A27
:1008E000FD4F958F80936D0201C08081FF91EF9144
:1008F0009F918F912F910F900BBE0F900FBE0F9075
:100900001F9018951F920F920FB60F9211242F93DC
:100910003F938F939F93AF93BF93809146029091A3
:100920004702A0914802B09149023091450223E06C
:10093000230F2D3720F40196A11DB11D05C026E817
:10094000230F0296A11DB11D2093450280934602FC
:1009500090934702A0934802B093490280914A02C3
:1009600090914B02A0914C02B0914D020196A11DB5
:10097000B11D80934A0290934B02A0934C02B09316
:100980004D02BF91AF919F918F913F912F910F9009
:100990000FBE0F901F901895CF92DF92EF92FF92AB
:1009A0000F931F93E82FF92F05C00150110921095A
:1009B000310961F1908196239417B9F305C0015074
:1009C00011092109310911F1908196239413F7CF70
:1009D000C12CD12CE12CF12C0AC08FEFC81AD80AF7
:1009E000E80AF80A0C151D052E053F0579F08081EF
:1009F0008623841791F36C2D7D2D8E2D9F2D1F91B5
:100A00000F91FF90EF90DF90CF90089560E070E03D
:100A100080E090E01F910F91FF90EF90DF90CF90DA
:100A20000895E4E5F2E01382128288EE93E0A0E0FC
:100A3000B0E084839583A683B78384E092E09183BA
:100A4000808385EC90E09587848784EC90E097879D
:100A5000868780EC90E0918B808B81EC90E0938B8B
:100A6000828B82EC90E0958B848B86EC90E0978B68
:100A7000868B118E128E138E148EE1EFF2E01682A9
:100A8000178210861186128613861486158616869E
:100A90001786108A118A128A138A148A158A089571
:100AA000789484B5826084BD84B5816084BD85B549
:100AB000826085BD85B5816085BD80916E00816055
:100AC00080936E00109281008091810082608093FB
:100AD00081008091810081608093810080918000FD
:100AE0008160809380008091B10084608093B10028
:100AF0008091B00081608093B0008091910082600D
:100B00008093910080919100816080939100809109
:100B100090008160809390008091A100826080931A
:100B2000A1008091A10081608093A1008091A0002C
:100B300081608093A00080912101826080932101D7
:100B40008091210181608093210180912001816049
:100B50008093200180917A00846080937A00809154
:100B60007A00826080937A0080917A00816080931D
:100B70007A0080917A00806880937A001092C10098
:100B800010923503109236031092370310923803F7
:100B90001092F3021092F4021092F5021092F602F3
:100BA000E9DD6B017C014B015C0128EB820E2BE03F
:100BB000921EA11CB11CDEDD6C157D058E059F0506
:100BC00028F086169706A806B906A8F784E592E0ED
:100BD000909334038093330357DBCCDD6093F302AF
:100BE0007093F4028093F5029093F60262E172E052
:100BF0008091330390913403CADDBCDD6B017C012D
:100C00004B015C013AE0830E911CA11CB11CB2DDCA
:100C10006C157D058E059F0528F086169706A8069B
:100C2000B906A8F781E0809307032EDB61E089E035
:100C30000BDD60E08AE008DDC1E061E08C2F04DDBF
:100C4000CF5FC730D1F761E083E0FEDC61E088E090
:100C5000FBDC61E088E07BDC61E08BE0F5DC61E0FF
:100C60008BE075DC94EF892E99249394A12CB12C00
:100C700023E0222E312CC3E2D0E07CDD672B682BF1
:100C8000692B39F477DD623071058105910508F42F
:100C9000FCC070DDC0905002D0905102E090520232
:100CA000F09053026C157D058E059F0540F460930E
:100CB0005002709351028093520290935302C0905D
:100CC0005002D0905102E0905202F09053029B01EA
:100CD000AC012C193D094E095F0969017A013AEF0F
:100CE000C316D104E104F10408F4CFC060935002AC
:100CF0007093510280935202909353028092FF02AC
:100D000090920003A0920103B09202031092030399
:100D10001092040310920503109206038091F702CB
:100D20009091F802A091F902B091FA028093FB022F
:100D30009093FC02A093FD02B093FE021BDD609332
:100D4000F7027093F8028093F9029093FA0212DD91
:100D50006093F3027093F4028093F5029093F6028D
:100D600009DD6B017C0164E272E0809133039091B4
:100D700034030DDD2AE041E050E060E070E0809156
:100D800033039091340318DD6BE272E080913303FA
:100D900090913403FCDC2AE0B701A6018091330373
:100DA0009091340309DD6DE272E0809133039091FC
:100DB0003403EDDC8091F7029091F802A091F902E2
:100DC000B091FA02B701A601481B590B6A0B7B0BC5
:100DD0002AE08091330390913403EEDC6DE272E0FF
:100DE0008091330390913403D2DC4091F70250910B
:100DF000F8026091F9027091FA028091FB029091E1
:100E0000FC02A091FD02B091FE02481B590B6A0B37
:100E10007B0B2AE08091330390913403CDDC6FE2A9
:100E200072E08091330390913403B1DCA3DCAB0119
:100E3000BC012AE08091330390913403BDDCE09043
:100E40003303F090340361E372E0C701A0DC61E298
:100E500072E0C7019CDC8EDC6B017C012B013C0144
:100E600045E0440E511C611C711C84DC6C157D0531
:100E70008E059F0508F098C07DDC6093F7027093A3
:100E8000F8028093F9029093FA0260E089E05FDB58
:100E9000C1010197F1F761E089E059DBCE010197CB
:100EA000F1F760E089E053DBECEEF1E06491E6EA13
:100EB000F1E08491E82FF0E0EE0FFF1FEE57FE4FB8
:100EC0008591949100E412E42FE030E0462F64DD38
:100ED000611571058105910549F0DC01CB01019691
:100EE000A11DB11DBC01CD019F7003C060E070E089
:100EF000CB0163D026E933E44BE05DE399D020E0F9
:100F000030E040E05FE394D069D170934F0260938A
:100F10004E0268E372E084E592E039DCC0904E0254
:100F2000D0904F020D2C000CEE08FF08F7FE0DC00C
:100F30006DE284E592E066DA44275527BA014C1940
:100F40005D096E097F092AE003C02AE0B701A60106
:100F500084E592E031DC61E272E084E592E017DC46
:100F6000E0904E02F0904F02F9ECEF16F1041CF401
:100F700060E08BE0ECDAC9DB2AEFE216F1041CF04A
:100F800061E08BE006C033E0E316F1041CF460E09E
:100F900088E0DDDABADB4AE0E416F1041CF061E037
:100FA00088E0D5DA9CDA69CE4616570668067906D7
:100FB00008F05BCF61CFE89409C097FB3EF49095B1
:100FC0008095709561957F4F8F4F9F4F9923A9F022
:100FD000F92F96E9BB279395F695879577956795B1
:100FE000B795F111F8CFFAF4BB0F11F460FF1BC0F5
:100FF0006F5F7F4F8F4F9F4F16C0882311F096E988
:1010000011C0772321F09EE8872F762F05C0662335
:1010100071F096E8862F70E060E02AF09A95660FEE
:10102000771F881FDAF7880F9695879597F90895A7
:101030000BD078C069D028F06ED018F0952309F055
:101040005AC05FC01124A2C07ED0A0F3959FD1F3F7
:10105000950F50E0551F629FF001729FBB27F00D66
:10106000B11D639FAA27F00DB11DAA1F649F6627BB
:10107000B00DA11D661F829F2227B00DA11D621F0A
:10108000739FB00DA11D621F839FA00D611D221FC4
:10109000749F3327A00D611D231F849F600D211DA8
:1010A000822F762F6A2F11249F5750408AF0E1F04B
:1010B00088234AF0EE0FFF1FBB1F661F771F881F94
:1010C00091505040A9F79E3F510570F014C05EC08A
:1010D0005F3FECF3983EDCF3869577956795B7957F
:1010E000F795E7959F5FC1F7FE2B880F911D9695A9
:1010F000879597F9089597F99F6780E870E060E019
:1011000008959FEF80EC089500240A9416161706A0
:1011100018060906089500240A94121613061406E8
:1011200005060895092E0394000C11F4882352F04B
:10113000BB0F40F4BF2B11F460FF04C06F5F7F4F03
:101140008F4F9F4F089557FD9058440F551F59F0EA
:101150005F3F71F04795880F97FB991F61F09F3FA4
:1011600079F087950895121613061406551FF2CFCD
:101170004695F1DF08C0161617061806991FF1CF1D
:1011800086957105610508940895E894BB27662744
:101190007727CB0197F90895A1E21A2EAA1BBB1B52
:1011A000FD010DC0AA1FBB1FEE1FFF1FA217B30733
:1011B000E407F50720F0A21BB30BE40BF50B661F49
:1011C000771F881F991F1A9469F76095709580950D
:1011D00090959B01AC01BD01CF01089504D06894A6
:1011E000B111D4CF0895B7DF88F09F5790F0B92F91
:1011F0009927B751A0F0D1F0660F771F881F991F6C
:101200001AF0BA95C9F712C0B13081F0BEDFB1E073
:101210000895BBCF672F782F8827B85F39F0B93F83
:10122000CCF3869577956795B395D9F73EF490956D
:101230008095709561957F4F8F4F9F4F0895EE0F6A
:10124000FF1F881F8BBF0790F691E02D199481E056
:0A12500090E0F89400C0F894FFCF7E
:10125A000000000002026C019A014E02CB01A901B2
:10126A00BD01564D4450565F317C315F564D445056
:10127A00560D0A00564D4450455F003A323A007CFA
:10128A00005F564D4450450044697374616E63654E
:04129A003A200000F6
:00000001FF
